:020000040800F2
:10000000184B0020891600088D0700088F0700088C
:1000100093070008970700089B07000800000000EE
:100020000000000000000000000000009F07000822
:10003000A107000800000000A3070008A5070008AA
:10004000A3160008A3160008A3160008A3160008AC
:10005000A3160008A3160008A3160008A31600089C
:10006000A3160008A3160008A3160008A31600088C
:10007000A3160008A3160008A3160008A31600087C
:10008000A3160008A3160008A3160008A31600086C
:10009000A3160008A3160008A3160008A31600085C
:1000A000A3160008A3160008A3160008A31600084C
:1000B000A3160008A3160008A3160008A31600083C
:1000C000A3160008A3160008A3160008A31600082C
:1000D000A316000865270008A3160008A316000849
:1000E000A3160008A3160008A3160008A31600080C
:1000F000A3160008A3160008A3160008A3160008FC
:10010000A3160008A3160008A3160008A3160008EB
:10011000A3160008A3160008A3160008A3160008DB
:10012000A3160008A3160008A3160008A3160008CB
:1001300000F002F800F03AF80AA090E8000C8244BF
:100140008344AAF10107DA4501D100F02FF8AFF29C
:10015000090EBAE80F0013F0010F18BFFB1A43F0A5
:10016000010318476033000080330000103A24BFB9
:1001700078C878C1FAD8520724BF30C830C144BF0C
:1001800004680C607047000000230024002500264E
:10019000103A28BF78C1FBD8520728BF30C148BFEA
:1001A0000B6070471FB51FBD10B510BD02F090FD6C
:1001B0001146FFF7F7FF00F0D5F902F0C2FD03B4D6
:1001C000FFF7F2FF03BC02F06BFA00002DE9F847DD
:1001D000034600200090E94680258026A6F1800491
:1001E000A5F180081F4607EB040A672060430AEB6D
:1001F0002022582008FB00F0A7EB202AB7206043FC
:10020000AAEB202107EB080AC62008FB00F00AEB46
:10021000202CFF2A00DDFF22FF2900DDFF21BCF199
:10022000FF0F01DD4FF0FF0C002A00DA0022002949
:1002300000DA0021BCF1000F01DA4FF0000C01F0F0
:100240001C00C00040EAEC0089F8000002F0F80051
:1002500040EA611089F80100BDF80000BDE8F887A8
:100260001CB501F031FA4FF4A06000F08DFB01F0F5
:10027000C7FE01F0BDFB002001F0EDFA4FF6FF7064
:1002800002F0B6FA4FF4E13002F01DFAFAA002F0E3
:10029000E1FC17E04FF6FF701F23FEA296210090AD
:1002A000142002F014FCC82001F046FA4FF6FF704B
:1002B0001F23FCA296210090142002F008FCC82005
:1002C00001F03AFA01F04FFF0028E3D14FF47840F3
:1002D00002F08EFA4FF4A073F022AE210A2002F051
:1002E00050F8052001F0CFFD0020009040F23F13B0
:1002F000EF220146019001F01CFB1CBD10B5044625
:1003000000BF4021EB4801F0D7F80128F9D1214680
:10031000E84801F063F810BD10B5FF20FFF7EEFFCD
:10032000AA20FFF7EBFF5520FFF7E8FFE24800881F
:10033000C0F34700FFF7E2FFE0480088C0F3470042
:10034000FFF7DCFFDE480078FFF7D8FF002404E069
:10035000DC49085DFFF7D2FF641CDB48006884427B
:10036000F6D310BDD6480078092816D2DFE800F091
:10037000150509150D15111516008020D3490870B3
:1003800010E0C020D14908700CE0F020CF4908707F
:1003900008E0FC20CD49087004E000BFFF20CB49F5
:1003A000087000BF00BF704730B50020C849096819
:1003B000491EC74A116000BFCEE0C64911F81010AF
:1003C000C54A1170C34931F81010090AC34A1170A7
:1003D0001146097801F0F801C14A1170BF49097846
:1003E0004901BD4A127802F0E00241EAE201BD4A49
:1003F0001170B9490978C906090EBB4A1170B8498C
:100400000978B84A1278962303FB0211B64A12788B
:100410001D2303FB0211090AB44A11701278AB4B79
:100420001B7802EA0301B24A1278521CB04B1A70D0
:10043000B04A126842EA0162AE4B1A60A04A1278D2
:10044000092A7BD2DFE802F07A05067A077A487A31
:100450007B0000BF00BF9A4A1278202393FBF2F280
:10046000A34B1B789A422FD1A24A1378964A14685C
:100470001268521C944D2A60924A13559D4A128864
:10048000C2F307232A4614681268521C2A608D4A58
:100490001355984A1268C2F307432A461468126833
:1004A000521C2A60874A1355924A1268130E2A4634
:1004B00014681268521C2A60824A135500228D4B20
:1004C0001A608B4B1A7006E08A4A12687C4B1B78C4
:1004D000DA40884B1A603DE0854A1278042A27D119
:1004E000844A1288C2F30724774A13681268521CA0
:1004F000754D2A60734AD4547E4A1268C2F3074489
:100500002A4613681268521C2A606E4AD454794AEB
:100510001268130E2A4614681268521C2A60694A2F
:1005200013550022734B1A60714B1A7005E005E0F9
:10053000704A126892096F4B1A600BE000BF6B4A59
:100540001378614A14681268521C5F4D2A605D4A34
:10055000135500BF00BF401C5D49096888427FF603
:100560002CAF30BD00240025FFF77AFE4FF4007059
:1005700061490861614800884F4909880844401E64
:100580005F4908805F4800884C4909880844401E3C
:100590005D490880FFF7E6FEEDE000BF5B480068BC
:1005A0000028FBD000BF594800680128FBD000207C
:1005B000474908604F4908604D4908704249086042
:1005C0000025C9E000BF5148001F00680028FAD08C
:1005D00000242FE000BF4E4800680128FBD04648A9
:1005E0008068C0B24B4921F8140000BF4848006839
:1005F0000028FBD0474830F814004FF6FF7101EA9D
:100600000020444921F8140000BF41480068012837
:10061000FBD0404830F8140037498968C9B2084314
:100620003C4921F8140000BF394800680028FBD07D
:10063000601C84B2B4F5A07FCCDB00BF3348001F40
:1006400000680128FAD0002021490860002479E0E0
:10065000304830F8140030490860081526494861D0
:1006600008612848008885426ADB2748008885425F
:1006700066DC2248008851E00D0AC6F4B9E2B5E70D
:10068000D7D32053544D3332D7CFB5E761200D0A6D
:100690000D0A00004F5637363730204572726F72A0
:1006A0002121000020202020202020202020202088
:1006B0002020000000380140060000200800002033
:1006C0000A00002068000020200000201400002004
:1006D0000C0000206A410020260000202500002098
:1006E0002A0000202B0000202C0000202D000020DC
:1006F0001C00002018000020001001400200002013
:100700001000002004000020120000200C012142F3
:1007100008812242E83E00200C0C014084420FDB9D
:100720001548008884420BDC144830F81410144833
:1007300002680068401C124B1860124820F8121022
:10074000601C84B2B4F5A07F82DB0D48006808B15C
:10075000FFF72AFE681C85B2F02DFFF633AF00BF0D
:10076000094800680028FBD000BF0748006801283E
:10077000FBD0FFF7D1FD10E710000020E83E00207D
:100780000C0000206A4100200C012142704700BF8C
:10079000FEE700BFFEE700BFFEE700BFFEE77047D1
:1007A00070477047704700000CB500200190009022
:1007B0006C48006840F480306A49086000BF6948AE
:1007C000006800F4003000900198401C01900098EF
:1007D00018B90198B0F5A06FF1D16248006800F433
:1007E000003010B10120009001E00020009000983E
:1007F000012843D15C48006840F010005A49086065
:100800000846006820F0030008600846006840F0D1
:1008100002000860534840685249486008464068F2
:1008200048600846406840F4806048600846406878
:1008300020F47C1048600846406840F4E8104860A6
:100840000846006840F08070086000BF45480068B6
:1008500000F000700028F9D04248406820F0030002
:10086000404948600846406840F00200486000BFC8
:100870003C48406800F00C000828F9D10CBD10B5C8
:10088000FFF792FF10BD10B53648006840F0010038
:100890003449086008464068344908403149486096
:1008A00008460068324908402E490860084600683A
:1008B00020F4802008600846406820F4FE0048606C
:1008C0004FF41F008860FFF7DAFF4FF000602949FE
:1008D000086010BD10B5002100200022214B5B688C
:1008E00003F00C0121B1042906D0082928D107E022
:1008F000214B224C236027E01F4B204C236023E038
:10090000184B5B6803F47010164B5B6803F480327D
:10091000022303EB904022B9194B4343174C236049
:100920000DE0104B5B6803F4003323B1144B4343D9
:10093000124C236003E0104B4343104C236003E050
:100940000D4B0E4C236000BF00BF064B5B68C3F32A
:1009500003130C4CE15C094B1B68CB40074C236034
:1009600010BD000000100240002002400000FFF80F
:10097000FFFFF6FE08ED00E000127A0030000020D4
:1009800000093D003400002031490143314A116023
:10099000704770B5002100230F22C47804B32D4C9A
:1009A000246804F4E064C4F5E064210AC1F104039E
:1009B000CA40447804FA03F18478144021430901C1
:1009C000254C0678A155047804F01F050124AC409D
:1009D00005786D11AD0005F1E025C5F8004109E08D
:1009E000047804F01F050124AC401C4D06787611F4
:1009F00045F8264070BD1A4A0A400243154B1B1F9A
:100A00001A60704739B1134A121D12680243114B24
:100A10001B1D1A6006E00F4A121D126882430D4B1F
:100A20001B1D1A607047042808D14FF0E0210969A6
:100A300041F004014FF0E022116107E04FF0E021A6
:100A4000096921F004014FF0E022116170470000B4
:100A50000000FA050CED00E000E400E080E100E0B9
:100A600080FFFF1F10B50446CC48844208D1012105
:100A7000042000F02DFB0021042000F029FB46E0BB
:100A8000C748844208D10121082000F021FB002141
:100A9000082000F01DFB3AE0C248844208D1012141
:100AA000102000F015FB0021102000F011FB2EE0BB
:100AB000BD48844208D10121202000F009FB00211B
:100AC000202000F005FB22E0B848844208D1012133
:100AD000402000F0FDFA0021402000F0F9FA16E075
:100AE000B348844208D10121802000F0F1FA0021AE
:100AF000802000F0EDFA0AE0AE48844207D10121DF
:100B0000801500F0E5FA0021A01500F0E1FA10BD13
:100B100010B50121084600F0DBFA0021012000F0A9
:100B2000D7FA10BD2DE9F04102460025002600202D
:100B300000230024002791F803C00CF00F0591F862
:100B400003C00CF0100CBCF1000F03D091F802C0F0
:100B50004CEA050591F800C0BCF1000F31D01468D3
:100B600000202BE04FF0010C0CFA00F3B1F800C0AC
:100B70000CEA03069E4220D183004FF00F0C0CFAC2
:100B800003F7BC4305FA03FC4CEA040491F803C0E4
:100B9000BCF1280F06D14FF0010C0CFA00FCC2F892
:100BA00014C00AE091F803C0BCF1480F05D14FF022
:100BB000010C0CFA00FCC2F810C0401C0828D1D36C
:100BC0001460B1F800C0BCF1FF0F34DD54680020A0
:100BD0002EE000F1080C4FF0010808FA0CF3B1F810
:100BE00000C00CEA03069E4221D183004FF00F0C97
:100BF0000CFA03F7BC4305FA03FC4CEA040491F831
:100C000003C0BCF1280F05D100F1080C08FA0CF85C
:100C1000C2F8148091F803C0BCF1480F07D100F16D
:100C2000080C4FF0010808FA0CF8C2F81080401CBC
:100C30000828CED35460BDE8F0814FF6FF710180E3
:100C4000022181700421C170704702460020936820
:100C50000B400BB1012000E000207047014688687E
:100C600080B2704702460020D3680B400BB10120D0
:100C700000E0002070470146C86880B270470161FB
:100C80007047416170470AB1016100E041617047FE
:100C9000C16070474FF480320A4382618161826192
:100CA00082698269704702460020434B18684FF6FC
:100CB0008073184040EA021008433F4B18607047A9
:100CC0003E49C8617047F0B50A4600230024002160
:100CD000002500F00046B6F1004F02D1364EF16912
:100CE00001E0354E7168C0F3034583B200F440164D
:100CF000B6F5401F08D121F070612F4E766826F0BE
:100D000070662D4F7E6012E000F48016B6F5801FED
:100D100006D1032606FA05F4A14341F0706106E00E
:100D2000460D360103FA06F6B14341F0706122B177
:100D3000460D360103FA06F6314300F00046B6F1DF
:100D4000004F02D11C4EF16101E01B4E7160F0BDFD
:100D500030B500228B071C0F0F2303FA04F2164B49
:100D600008338C1053F824309343134C08348D10FF
:100D700044F8253023468C1053F824308C07240F78
:100D800000FA04F423430C4C08348D1044F8253049
:100D900030BD0A49DC31086070470000000801409E
:100DA000000C0140001001400014014000180140F7
:100DB000001C0140002001400000014000002042D2
:100DC000DF48006840F00100DD49086008464068DF
:100DD000DC490840DA49486008460068DA490840BA
:100DE000D74908600846006820F48020086008465B
:100DF000406820F4FE0048604FF41F008860704790
:100E0000CF49096821F48031CD4A11601146096843
:100E100021F480211160B0F5803F03D0B0F5802F20
:100E20000ED106E0C649096841F48031C44A116018
:100E300007E0C349096841F4A021C14A116000E0FC
:100E400000BF00BF704710B50146002200230020FC
:100E50004A11012A02D1BA4C236806E0022A02D1C3
:100E6000B74C236A01E0B64C636A01F01F0201240B
:100E700094401C400CB1012000E0002010BD38B5AA
:100E8000002000900024002500BF3120FFF7DBFF89
:100E900005460098401C00900098B0F5A06F01D066
:100EA000002DF2D03120FFF7CEFF08B1012400E081
:100EB0000024204638BD01460020A14A106820F0D9
:100EC000F80040EAC10010607047A0490860704710
:100ED000024600209A4B586820F47C1042EA010335
:100EE0001843974B58607047984908667047014609
:100EF0000020934A506820F0030008435060704778
:100F00008F48406800F00C007047014600208C4A72
:100F1000506820F0F0000843506070470146002000
:100F2000874A506820F4E0600843506070470146EB
:100F30000020834A506820F4605040EAC1005060AD
:100F4000704729B17E4A527A02437D4B5A7204E0BF
:100F50007B4A527A82437A4B5A7270477B49D83126
:100F60000860704701460020754A506820F44040F0
:100F70000843506070470021714A20321170704A56
:100F800082F82010012802D004280AD104E00121AF
:100F90006B4A2032117005E00521694A2032117038
:100FA00000E000BF00BF70476949086070476449AE
:100FB000096A0143624A1162704765494439086011
:100FC000704730B500210022002400235C4D6D687D
:100FD00005F00C0121B1042905D0082923D105E031
:100FE0005C4D056022E05B4D05601FE0544D6D686F
:100FF00005F47012524D6D6805F48034022505EB3E
:1010000092421CB9544D554305600BE04C4D6D6840
:1010100005F400351DB1504D5543056002E04D4DBE
:101020005543056002E04B4D056000BF00BF444DD5
:101030006D6805F0F0010909484D6B5C0568DD40FD
:1010400045603F4D6D6805F4E061090A434D6B5CF6
:101050004568DD4085603A4D6D6805F46051C90A08
:101060003E4D6B5C4568DD40C560354D6D6805F4EF
:101070004041890B3A4D6B5CC568B5FBF3F50561E2
:1010800030BD29B12E4A526902432D4B5A6104E00A
:101090002B4A526982432A4B5A61704729B1284A28
:1010A00092690243264B9A6104E0254A9269824381
:1010B000234B9A61704729B1214AD2690243204BE0
:1010C000DA6104E01E4AD26982431D4BDA6170473F
:1010D00029B11B4AD2680243194BDA6004E0184A6E
:1010E000D2688243164BDA60704729B1144A1269FC
:1010F0000243134B1A6104E0114A12698243104BF8
:101100001A61704712494039086070470F49C86436
:1011100070470B49C87170470948406A40F08070B9
:1011200007494862704701460020054A92680A4014
:101130000AB1012000E00020704701498872704721
:10114000001002400000FFF8FFFFF6FE00004242E0
:101150008004424200127A0000093D004400002051
:101160005400002010B50446FB48844209D10121F7
:101170008803FFF7ADFF00214FF48040FFF7A8FF81
:1011800032E0F648844209D101214804FFF7ADFF5F
:1011900000214FF40030FFF7A8FF25E0F04884421B
:1011A00009D101218804FFF7A0FF00214FF480201E
:1011B000FFF79BFF18E0EB48844209D10121C804E6
:1011C000FFF793FF00214FF40020FFF78EFF0BE0A5
:1011D000E548844208D101210805FFF786FF002178
:1011E0004FF48010FFF781FF10BD2DE9F04786B066
:1011F00005460E460024A24600BFA1460027B0893E
:1012000000B100BF2F462C8A4CF6FF700440F088D6
:1012100004432C82AC894EF6F3100440B088318927
:101220000843718908430443AC81AC8A4FF6FF4000
:101230000440B0890443AC8201A8FFF7C2FEC6484F
:10124000874202D1DDF810A001E0DDF80CA0A889EA
:1012500000F4004040B10AEBCA0000EB0A1031680C
:101260004900B0FBF1F807E00AEBCA0000EB0A10F6
:1012700031688900B0FBF1F86420B8FBF0F004019C
:101280002009642101FB1089A88900F4004040B1C5
:10129000322000EBC900B0FBF1F000F0070004437E
:1012A00008E0322000EB09106421B0FBF1F000F0FF
:1012B0000F0004432C8106B0BDE8F0874FF41651AF
:1012C000016000218180C18001810C2141810021C8
:1012D0008181704710B502460020108A4FF2FF034B
:1012E00018400B884C8823438C882343CC882343A5
:1012F0001843108210BD0021018041808180C1808F
:10130000704721B1828942F40052828104E08289CF
:101310004DF6FF731A4082817047F0B503460024F2
:1013200000260025002040F66A17B94200D100BF10
:101330001846C1F3421401F01F06012707FA06F50B
:10134000012C01D10C3004E0022C01D1103000E05E
:1013500014301AB107682F43076002E00768AF43F3
:101360000760F0BD1AB1838A0B43838202E0838A4F
:101370008B4383827047028A4FF6F0731A400282D1
:10138000028A0A430282704782894FF2FF731A4031
:10139000828182890A438281704721B1828942F029
:1013A0000202828104E082894FF6FD731A40828135
:1013B0007047028A4FF6DF731A400282028A0A439C
:1013C0000282704721B1028A42F48042028204E024
:1013D000028A4BF6FF731A4002827047C1F308027B
:1013E0008280704701468888C0F308007047818971
:1013F00041F0010181817047028BD2B20283028BDE
:1014000042EA012202837047028B02F47F42028388
:10141000028B0A430283704721B1828A42F0200284
:10142000828204E0828A4FF6DF731A40828270471C
:1014300021B1828A42F01002828204E0828A4FF651
:10144000EF731A408282704721B1828A42F008020B
:10145000828204E0828A4FF6F7731A4082827047D4
:1014600021B1828942F40042828103E08289C2F381
:101470000E028281704721B1828A42F40062828228
:1014800004E0828A4FF2FF731A4082827047828A98
:101490004FF6FB731A408282828A0A438282704727
:1014A00021B1828A42F00202828204E0828A4FF6EF
:1014B000FD731A408282704702460020B1F5007F1A
:1014C00000D100BF13880B400BB1012000E00020C9
:1014D000704701F40072B2F5007F00D100BFCA432B
:1014E0000280704770B502460024002300250020CA
:1014F00040F66A16B14200D100BFC1F3421501F0B7
:101500001F03012606FA03F3012D02D19689334009
:1015100006E0022D02D1168A334001E0968A33405C
:101520000C12012606FA04F41688344013B10CB1EB
:10153000012000E0002070BD10B50022002340F61D
:101540006A14A14200D100BF0A1201249440A3B240
:10155000DC43048010BD000000380140004400401E
:1015600000480040004C004000500040002044492A
:101570000860091D0860091D0860091D08604148D0
:101580003F4914310860704700213D498279002AA3
:101590003AD00A46126803689A430B461A600A1D3D
:1015A000126803689A430B1D1A60027911440A6895
:1015B00003681A430A60324A0832126803689A4381
:1015C0002F4B08331A601A1D126803689A432C4B7C
:1015D0000C331A604279102A0ED11A1F1268036860
:1015E0001A43274B08331A601A1D126803681A43FE
:1015F000234B0C331A600DE02149427911440A68EB
:1016000003681A430A6005E0027911440A68036816
:101610009A430A6070470021016001710C214171F9
:101620000021817170471649103109680143144A3D
:1016300010321160704701460020114A14321268BE
:101640000A400AB1012000E0002070470C49143123
:1016500008607047014600200022094B1B6803EA1E
:101660000102074B14331B680B4013B10AB1012070
:1016700000E0002070470249143108607047000004
:1016800000040140FFFF0F00094880470948004758
:10169000FEE7FEE7FEE7FEE7FEE7FEE7FEE7FEE722
:1016A000FEE7FEE704480549054A064B704700007F
:1016B000870800083101000818450020184B002059
:1016C00018470020184700202D4800682D49B0FB1E
:1016D000F1F02D4908700846007800EB4001C1EB9D
:1016E000C0104FF6FF7101EAC0002849088070471A
:1016F0000146254A12784A434FF0E0235A610022FE
:101700009A611A46126942F001021A6100BF4FF055
:10171000E022106900F001021AB100F48032002AC0
:10172000F5D04FF0E022126922F001024FF0E023E1
:101730001A6100229A6170470146144A12884A438E
:101740004FF0E0235A6100229A611A46126942F072
:1017500001021A6100BF4FF0E022106900F001029F
:101760001AB100F48032002AF5D04FF0E02212695D
:1017700022F001024FF0E0231A6100229A617047C3
:101780003000002000127A00580000205A0000208B
:1017900008B501210846FFF781FC0121FE48FFF74B
:1017A00092FA01211C20FFF779FC4FF6FF70ADF88B
:1017B000000010208DF8030003208DF80200694618
:1017C000F648FFF7AFF94FF4E060ADF80000694666
:1017D000F348FFF7A7F94FF40040ADF80000694661
:1017E000F048FFF79FF908BD012806D1EC490969C7
:1017F00041F40071EA4A116106E028B9E8494969F3
:1018000041F40071E64A51617047012806D1E4496C
:10181000096941F48061E24A116106E028B9E049B2
:10182000496941F48061DE4A51617047012808D15D
:10183000DC491031096841F40041DA4A1032116084
:1018400008E038B9D7491431096841F40041D54A54
:10185000143211607047012806D1D149096941F459
:101860008071CF4A116106E028B9CD49496941F438
:101870008071CB4A516170474FF6FF71C74A1432ED
:101880001160111F0860704700B503460020FFF784
:10189000ABFF1846FFF7F0FF0020FFF7B6FF01206F
:1018A000FFF7B3FF00BD00B503460120FFF79CFF23
:1018B0001846FFF7E1FF0020FFF7A7FF0120FFF721
:1018C000A4FF00BD30B505460C462846FFF7DCFFF7
:1018D0002046FFF7E8FF30BD70B504462046FFF70D
:1018E000D3FF4FF08830AD490860091D08604FF6FE
:1018F000FF70AA490C3108600120FFF775FF002036
:10190000FFF794FF0520FFF7F3FE0120FFF78EFF9E
:10191000A2480830006885B24FF033309F49086014
:10192000091D08604FF6FF709C490C31086028467D
:1019300070BD2DE9F04307460C4615461E46DDE90D
:1019400007899948008842F26D41884227D150208A
:10195000FFF79AFF3846FFF7A6FF5120FFF794FFE5
:101960002846FFF7A0FF5220FFF78EFF2046FFF723
:101970009AFF5320FFF788FF3046FFF794FF20209F
:10198000FFF782FF4046FFF78EFF2120FFF77CFF25
:101990004846FFF788FF2220FFF776FF26E08248BF
:1019A000008842F27D41884220D12A20FFF76CFF57
:1019B0003812FFF778FFF8B2FFF775FF2812FFF72C
:1019C00072FFE8B2FFF76FFF2B20FFF75DFF2012D9
:1019D000FFF769FFE0B2FFF766FF3012FFF763FF22
:1019E000F0B2FFF760FF2C20FFF74EFFBDE8F08359
:1019F00010B5FFF7CDFE0120FFF72DFF0120FFF707
:101A000015FF0120FFF701FF0520FFF795FE0020DD
:101A1000FFF721FF3220FFF78FFE01210020FFF7A3
:101A200051FF3220FFF788FE49F225305E490880D9
:101A30000846008849F22531884210D05A4800886B
:101A4000C91C88420BD05848008849F23D31884271
:101A500005D05548008849F2203188427DD142F2B4
:101A60006D40514908804FF480710120FFF72AFF33
:101A70004FF4E0610220FFF725FF41F2300103201F
:101A8000FFF720FF00210420FFF71CFF40F2022196
:101A90000820FFF717FF00210920FFF713FF00219F
:101AA0000A20FFF70FFF00210C20FFF70BFF00219A
:101AB0000D20FFF707FF00210F20FFF703FF002194
:101AC0001020FFF7FFFE07211120FFF7FBFE00218A
:101AD0001220FFF7F7FE00211320FFF7F3FE01218C
:101AE0000720FFF7EFFE3220FFF726FE41F290615C
:101AF0001020FFF7E7FE40F227211120FFF7E2FE5A
:101B00003220FFF719FE9D211220FFF7DBFE322065
:101B1000FFF712FE4FF4C8511320FFF7D3FE322017
:101B2000FFF70AFE25212920FFF7CCFE0D212B20EF
:101B3000FFF7C8FE3220FFF7FFFD00212020FFF74E
:101B4000C1FE00212120FFF7BDFE3220FFF7F4FD8A
:101B500007213020FFF7B6FE00E07BE040F20331C2
:101B60003120FFF7AFFE03213220FFF7ABFE40F23A
:101B700006213520FFF7A6FE08213620FFF7A2FE3A
:101B800040F206413720FFF79DFE4FF441713820A7
:101B9000FFF798FE072109E000023000000C014029
:101BA00000100140000801405C0000203920FFF7D0
:101BB00089FE40F201613C20FFF784FE08213D20B0
:101BC000FFF780FE00215020FFF77CFEEF2151201F
:101BD000FFF778FE00215220FFF774FE40F23F111C
:101BE0005320FFF76FFE4FF427416020FFF76AFE96
:101BF00001216120FFF766FE00216A20FFF762FEE7
:101C000000218020FFF75EFE00218120FFF75AFEB1
:101C100000218220FFF756FE00218320FFF752FEAD
:101C200000218420FFF74EFE00218520FFF74AFEA9
:101C300010219020FFF746FE4FF4C0619220FFF77D
:101C400041FE40F233110720FFF73CFE2220FFF750
:101C50001BFE17E142F27D40E8490880CF20FFF7E4
:101C600013FE0020FFF71FFEC120FFF71CFE3020EF
:101C7000FFF719FEED20FFF707FE6420FFF713FEC4
:101C80000320FFF710FE1220FFF70DFE8120FFF763
:101C90000AFEE820FFF7F8FD8520FFF704FE10207C
:101CA000FFF701FE7A20FFF7FEFDCB20FFF7ECFDEA
:101CB0003920FFF7F8FD2C20FFF7F5FD0020FFF796
:101CC000F2FD3420FFF7EFFD0220FFF7ECFDF720D7
:101CD000FFF7DAFD2020FFF7E6FDEA20FFF7D4FD4D
:101CE0000020FFF7E0FD0020FFF7DDFDC020FFF73B
:101CF000CBFD1B20FFF7D7FDC120FFF7C5FD01205D
:101D0000FFF7D1FDC520FFF7BFFD3020FFF7CBFD6A
:101D10003020FFF7C8FDC720FFF7B6FDB720FFF75B
:101D2000C2FD3620FFF7B0FD0820FFF7BCFD3A20CA
:101D3000FFF7AAFD5520FFF7B6FDB120FFF7A4FD80
:101D40000020FFF7B0FD1A20FFF7ADFDB620FFF72A
:101D50009BFD0A20FFF7A7FDA220FFF7A4FDF220BC
:101D6000FFF792FD0020FFF79EFD2620FFF78CFD78
:101D70000120FFF798FDE020FFF786FD0F20FFF719
:101D800092FD2A20FFF78FFD2820FFF78CFD082009
:101D9000FFF789FD0E20FFF786FD0820FFF783FD82
:101DA0005420FFF780FDA920FFF77DFD4320FFF7BA
:101DB0007AFD0A20FFF777FD0F20FFF774FD002062
:101DC000FFF771FD0020FFF76EFD0020FFF76BFDB0
:101DD0000020FFF768FDE120FFF756FD0020FFF728
:101DE00062FD1520FFF75FFD1720FFF75CFD072060
:101DF000FFF759FD1120FFF756FD0620FFF753FDB1
:101E00002B20FFF750FD5620FFF74DFD3C20FFF73C
:101E10004AFD0520FFF747FD1020FFF744FD0F2086
:101E2000FFF741FD3F20FFF73EFD3F20FFF73BFD61
:101E30000F20FFF738FD2B20FFF726FD0020FFF7CE
:101E400032FD0020FFF72FFD0120FFF72CFD3F2082
:101E5000FFF729FD2A20FFF717FD0020FFF723FDDC
:101E60000020FFF720FD0020FFF71DFDEF20FFF70A
:101E70001AFD1120FFF708FD7820FFF75DFC2920EF
:101E8000FFF702FD10BD10B504465C48008842F221
:101E90006D41884251D1092C4ED2DFE804F04D0546
:101EA0000E172029323B44004FF480510320FFF7E6
:101EB00009FD2220FFF7E8FC3EE041F2100103207B
:101EC000FFF700FD2220FFF7DFFC35E04FF48151E2
:101ED0000320FFF7F7FC2220FFF7D6FC2CE041F2AD
:101EE00030010320FFF7EEFC2220FFF7CDFC23E0BA
:101EF00041F208010320FFF7E5FC2220FFF7C4FCB4
:101F00001AE041F218010320FFF7DCFC2220FFF762
:101F1000BBFC11E041F228010320FFF7D3FC222093
:101F2000FFF7B2FC08E041F238010320FFF7CAFCDA
:101F30002220FFF7A9FC00BF5FE03048008842F292
:101F40007D41884259D1092C56D2DFE804F055056D
:101F50000F19232D37414B003620FFF795FCC82081
:101F6000FFF7A1FC2C20FFF78FFC45E03620FFF7A0
:101F70008BFC8820FFF797FC2C20FFF785FC3BE0CB
:101F80003620FFF781FC4820FFF78DFC2C20FFF75F
:101F90007BFC31E03620FFF777FC0820FFF783FC5D
:101FA0002C20FFF771FC27E03620FFF76DFCE820BE
:101FB000FFF779FC2C20FFF767FC1DE03620FFF7C8
:101FC00063FCA820FFF76FFC2C20FFF75DFC13E0FB
:101FD0003620FFF759FC6820FFF765FC2C20FFF73F
:101FE00053FC09E03620FFF74FFC2820FFF75BFC8D
:101FF0002C20FFF749FC00BF00BF10BD5C00002093
:1020000008B501210420FFF749F80220ADF80000CF
:1020100010208DF8030003208DF8020069460B485C
:10202000FEF780FD02210948FEF729FE08BD10B524
:102030000446012C04D102210448FEF722FE03E0ED
:1020400002210248FEF71BFE10BD000000080140FF
:1020500008B501210420FFF721F84FF48070ADF896
:10206000000003208DF8020018208DF80300694657
:10207000E648FEF757FD0620FFF74BF808BD08B508
:1020800001210420FFF70AF84FF48070ADF800003A
:1020900003208DF8020010208DF803006946DB480C
:1020A000FEF740FD0220ADF8000003208DF802008D
:1020B00010208DF803006946D448FEF733FD08BDB3
:1020C00008B501211020FEF7E9FFFF20ADF8000060
:1020D00048208DF803006946CD48FEF723FD08BD72
:1020E00008B501210420FEF7D9FF0C20ADF800004F
:1020F00028208DF803006946C448FEF713FD0C2123
:10210000C248FEF7BEFD0420ADF800008DF80300C4
:102110006946C048FEF706FD0421BE48FEF7B1FD42
:1021200008BD0EB502210320FEF712FE0420019027
:1021300000208DF8080008208DF8090001208DF896
:102140000A0001A8FFF720FA08208DF800000020FF
:102150008DF801008DF8020001208DF8030068461B
:10216000FEF717FC0EBD70B5002501213420FEF7E7
:1021700095FFFFF7A5FFFFF7B3FF00F04FF9FFF75B
:1021800067FF8021122000F03EFA08B1012070BDE7
:102190003220FFF7D1FA0B2000F054FA0446732CDA
:1021A00001D00220F3E70A2000F04CFA0446762C16
:1021B00001D00220EBE700250DE0974A02EB450233
:1021C0005178954A12F8150000F01DFA0220FFF729
:1021D000B3FA681C85B2552DEFD30020D7E72DE95F
:1021E000F0410446E72500260027012C06D0022CEA
:1021F00008D0032C0AD0042C10D10BE0E5255A2678
:102200005C270BE0E5255826602707E0E5258426B6
:102210004C2703E0E5259626402700BF00BF29464E
:10222000132000F0F0F93146012000F0ECF93946B6
:10223000022000F0E8F9BDE8F0812DE9F041044604
:10224000802522265E2734B1012C08D0032C0AD029
:10225000042C10D10BE0402511262F270BE066251A
:102260001B264B2707E099252826712703E0C02568
:1022700033268D2700BF00BF29464F2000F0C3F949
:102280002946502000F0BFF90021512000F0BBF991
:102290003146522000F0B7F93946532000F0B3F927
:1022A0002946542000F0AFF99E21582000F0ABF9E8
:1022B000BDE8F08170B50446002534B1012C06D08C
:1022C000032C06D0042C08D105E0B02505E09825A4
:1022D00003E0182501E0302500BF00BF2946552046
:1022E00000F091F970BD70B50446402534B1012C61
:1022F00006D0032C06D0042C08D105E0302505E0DB
:10230000382503E0502501E0602500BF00BF2946C5
:10231000562000F078F970BD2DE9F04104460425FF
:10232000C0268027072C1DD2DFE804F01C04080C0F
:102330001014180024258026802713E014258026F9
:1023400080270FE01425C02680270BE014254026A7
:10235000402707E014258026C02703E01425A02687
:10236000402700BF00BF29463A2000F04CF9314613
:10237000682000F048F93946672000F044F9BDE8CC
:10238000F0812DE9F04705460E469046994605EB4B
:1023900048001FFA80FA06EB490087B2B7F5447F80
:1023A00002DDA7F5447087B2032000F04BF9044624
:1023B00004F0F0040AF00301284661F39F0004438F
:1023C0002146032000F01FF9C5F38701192000F012
:1023D0001AF9CAF387011A2000F015F9322000F02B
:1023E00031F9044604F0C00407F00701304661F3F8
:1023F000DF000443C6F3C701172000F004F9C7F358
:10240000C701182000F0FFF8BDE8F0870008014080
:1024100000100140001401405C2D000808B50121A6
:102420001020FEF73BFE4FF40060ADF8000048209E
:102430008DF8030003208DF8020069469548FEF7E9
:1024400071FB4FF48050ADF8000010208DF80300B0
:1024500069469048FEF766FB8E48406820F470405D
:102460008C4948600846406840F44050486008BDC8
:1024700010B50120884908608849C1F8B0013220B0
:10248000FFF736F90020844908603220FFF730F961
:1024900000208249C1F8B00110BD10B500207E496E
:1024A00008603220FFF724F901207C49C1F8B0010F
:1024B0003220FFF71DF90120774908603220FFF72D
:1024C00017F910BD10B53220FFF712F9012072493B
:1024D00008607249C1F8B0013220FFF709F9002005
:1024E0006D49091D08603220FFF702F900206B4991
:1024F000C1F8AC013220FFF7FBF810BD70B50446FF
:1025000000261BE004F0800018B101206249086039
:1025100002E00020604908606006040E3220FFF7E8
:10252000E7F801205C49091D08603220FFF7E0F858
:1025300000205A49C1F8B001701CC6B2082EE1DB78
:102540005448406820F4704052494860084640684A
:1025500040F4004048603220FFF7CAF801204E499D
:10256000091D08603220FFF7C3F84C48D0F82C0151
:1025700008B1012500E0002500204749091D086039
:102580004448406820F4704042494860084640682A
:1025900040F440504860284670BD70B500243D4866
:1025A000406820F470403B4948600846406840F469
:1025B00000404860082517E03220FFF799F8012015
:1025C0003549091D08606006040E3448D0F82C0116
:1025D00008B1601CC4B23220FFF78AF800202E49EF
:1025E000091D0860681EC5B2002DE5DC2948406859
:1025F00020F47040274948600846406840F4405045
:102600004860204670BD70B505460C460026FFF7B1
:102610002FFF4220FFF772FF00B101266420FFF771
:1026200067F82846FFF76AFF00B101266420FFF72C
:102630005FF82046FFF762FF00B10126FFF72DFF8C
:10264000304670BD70B504460025FFF711FF4220EB
:10265000FFF754FF6420FFF74BF82046FFF74EFFCB
:102660006420FFF745F8FFF718FF6420FFF740F8F4
:10267000FFF7FEFE4320FFF741FF6420FFF738F825
:10268000FFF78BFF0546FFF71DFFFFF706FF284604
:1026900070BD000000100140AC0122420000224247
:1026A000014600BF704770B504460D4600BF40218B
:1026B0004B48FEF701FF0028F9D0E1B24848FEF789
:1026C0008DFE204670BD10B586B00446012144F24F
:1026D0000400FEF7E3FC4248FEF744FD4FF40070AF
:1026E000ADF8140003208DF8160018208DF817009F
:1026F00005A93C48FEF716FA4FF48060ADF81400C7
:1027000004208DF8170005A93648FEF70BFA01944E
:102710000020ADF80800ADF80A00ADF80C00ADF8E7
:1027200010000C20ADF80E0001A92D48FEF75DFD4C
:1027300025208DF8000003208DF801008DF802009F
:1027400001208DF803006846FEF723F9012240F2CC
:1027500025512348FEF7E1FD01212148FEF7D1FD77
:1027600006B010BD10B540F225511D48FEF7BAFE67
:1027700010B31B48FEF736FEC4B21B48008800F4B5
:102780000040C8B91848008800F4804060B10A2CA5
:1027900003D000201449088020E01348008840F44A
:1027A00000401149088019E00D2C06D10E48008820
:1027B00040F480400C49088010E00B480088C0F3CA
:1027C0000D000A490C5408480088401C064908803E
:1027D00008460088C72801DD0020088010BD0000E1
:1027E000003801400008014064000020EC43002054
:1027F0007CB506460020009040F23F13EF220146D0
:102800000190FFF796F800240AE0002504E0304626
:10281000FFF749F8681CC5B2F02DF8DB601C84B2E4
:10282000B4F5A07FF1DB7CBD7CB504460D461646B1
:102830002B46224629462046CDE90045FFF779F888
:102840003046FFF730F87CBD2DE9F04104460D46D7
:1028500016461F46DDF81880EA1B91B2A219D0B2C5
:102860004246FFF7E1FFAA1B91B2E219D0B24246FD
:10287000FFF7DAFFAA1991B2E219D0B24246FFF788
:10288000D3FFEA1991B2A219D0B24246FFF7CCFFAA
:10289000EA1991B2A21BD0B24246FFF7C5FFAA19AE
:1028A00091B2E21BD0B24246FFF7BEFFAA1B91B223
:1028B000E21BD0B24246FFF7B7FFEA1B91B2A21B60
:1028C000D0B24246FFF7B0FFBDE8F0812DE9FF4FDF
:1028D00081B0824616461F46DDF838B000243546E2
:1028E0000320A0EB460924E0BBF1000F0DD0A04669
:1028F00008E043462246009750460299FFF7A4FF9E
:1029000008F10108A845F4DD06E02B4622460097B1
:1029100050460299FFF798FF641CB9F1000F03DAE3
:10292000A000801D814404E0601B80000A308144C7
:102930006D1EAC42D8DD05B0BDE8F08F2DE9FC5F1F
:1029400004460D4616461F463B463246294620465B
:10295000CDE90045FEF7EDFF301B401C1FFA80FB60
:10296000781B401C1FFA80FA4FF000080FE04FF070
:10297000000906E00C98FEF796FF09F101001FFA26
:1029800080F9D945F6DB08F101001FFA80F8D0453F
:10299000EDDBBDE8FC9F2DE9F84304460F461546E4
:1029A0001E46DDF8208005B10EB9BDE8F883B919DF
:1029B000491E8BB26119491ECAB2E0B23946CDF840
:1029C0000080FFF7BBFF00BFEFE72DE9FF4F83B0AB
:1029D00004460D469246DDF840B0DFF87082AAF159
:1029E000200008EB0018BBF1010F38D0119848B94E
:1029F00005F10F0083B2E21D29462046CDE90045CE
:102A0000FEF797FF119801280BD104F10F00CDE9D3
:102A10000005E81D83B204F10F0229462046FEF7A7
:102A200088FF002718E0002610E098F80000C6F1A3
:102A3000070201219140084018B10698FEF733FFC4
:102A400002E05846FEF72FFF701CC6B2082EECDBE2
:102A500008F10108781CC7B2102FE4DB34E0A1466E
:102A600000272FE0002627E02B4622462946204655
:102A7000CDE90045FEF75DFF98F80000C6F10702BA
:102A800001219140084060B10698FEF70CFF601CE0
:102A9000C4B2A4EB090008280CD14C46681C85B2CE
:102AA00008E0601CC4B2A4EB0900082802D14C461F
:102AB000681C85B2701CC6B2082ED5DB08F101086F
:102AC000781CC7B2102FCDDB07B0BDE8F08F2DE921
:102AD000FC4706460F4614469846DDF82890002528
:102AE00010E0207880280DDA0020CDE900902278CF
:102AF00006EBC501C8B243463946FFF766FF681CBE
:102B0000C5B2641C20780028EBD1BDE8FC872DE914
:102B1000FF470746884614469946DDF830A042F242
:102B20001070B4FBF0F00A21B0FBF1F201FB1200CF
:102B30008DF808004FF47A70B4FBF0F0B0FBF1F2BE
:102B400001FB12008DF809006420B4FBF0F0B0FB2B
:102B5000F1F201FB12008DF80A000A20B4FBF0F03C
:102B6000B0FBF1F201FB12008DF80B000A20B4FB60
:102B7000F0F100FB11408DF80C0042F21070B4FB34
:102B8000F0F008B1052517E04FF47A70B4FBF0F0CF
:102B900008B1042510E06420B4FBF0F008B103256F
:102BA0000AE00A20B4FBF0F008B1022504E00CB101
:102BB000012501E004B90125002612E00020C5F13D
:102BC0000501314402ABCDE900A0595C3031CAB2F5
:102BD00007EBC601C8B24B464146FFF7F6FE701C34
:102BE000C6B2AE42EADBBDE8FF872DE9FC470546E9
:102BF0000F46144698460A9E0A2094FBF0F00A21DC
:102C000090FBF1F201FB1200303000F0FF090020D0
:102C100043464A463946CDE900602846FFF7D5FECF
:102C20000A2094FBF0F100FB1140303000F0FF0966
:102C3000002005F10801CDE90060C8B243464A46CC
:102C40003946FFF7C2FEBDE8FC870000B22E00083F
:102C5000704700000FB4044910B503AA029800F0B1
:102C600009F810BC5DF814FB600000207047704745
:102C700070477047074B70B50D467B4400F011F864
:102C80000446284600F020F810B14FF0FF3070BD28
:102C9000204670BD29FAFFFF01694A1C02610878CD
:102CA000704700B58FB0CDE901310021059105498C
:102CB0007944CDE903101146684600F02EF80FB0B4
:102CC00000BD0000E5FFFFFF007B00F080007047C3
:102CD000754600F03FF8AE4605006946534620F0C1
:102CE0000700854618B020B5FEF7DCFCBDE82040A3
:102CF0004FF000064FF000074FF000084FF0000BB8
:102D000021F00701AC46ACE8C009ACE8C009ACE86A
:102D1000C009ACE8C0098D4670472DE9F041064670
:102D20000024D6E90170F5688046304603E041464C
:102D3000B847641C3046A8470028F8D12046BDE8B3
:102D4000F08110B50446AFF300802046BDE8104086
:102D5000FDF735BA00487047B44400203A044010EB
:102D6000121432801716180419021A7A030A0C0C6E
:102D700015003E007000710172117309A202119CCE
:102D80007A207B1C7C287D3C7E557F688076818004
:102D90008288838F849685A386AF87C488D789E885
:102DA00013E0000010000D001420A505AB072475EA
:102DB000256326A59F78A068A103A6DFA7DFA8F05A
:102DC000A990AA9413E50E610F4B16021E0721026B
:102DD00022912907330B350B371D3871392A3C787E
:102DE0004D404E20695D6B4074198D4F8E008F00F1
:102DF00090009100920096009A80B084B10CB20EBF
:102E0000B382B80A431444F0453446584728483A38
:102E100059885A885B445C675D495E0E640465208E
:102E20006605940495086C0A6D554F8050805100DA
:102E30005222535E548009036E116F9F5500564015
:102E400057800000000000000000000000000000AB
:102E50000000000000000000000000000000000072
:102E60000000000000000000000000000000000062
:102E70000000000000000000000000000000000052
:102E80000000000000000000000000000000000042
:102E90000000000000000000000000000000000032
:102EA0000000000000000000000000000000000022
:102EB0000000000000000000000000000000000012
:102EC0000000000000101010101010100000181862
:102ED000000000123624480000000000000000003E
:102EE0000000000000242424FE484848FE484848CA
:102EF0000000000010385454503018141454543842
:102F0000101000000044A4A8A8A8541A2A2A2A4491
:102F1000000000000030484848506EA4948889762C
:102F2000000000606020C000000000000000000001
:102F30000000000204080810101010101008080407
:102F4000020000402010100808080808081010208F
:102F50004000000000001010D63838D610100000D5
:102F600000000000000010101010FE1010101000E3
:102F70000000000000000000000000000000606091
:102F800020C000000000000000007F0000000000E2
:102F90000000000000000000000000000000606071
:102FA0000000000001020204040808101020204064
:102FB000400000000018244242424242424224188B
:102FC0000000000000107010101010101010107C85
:102FD00000000000003C4242420404081020427EEF
:102FE00000000000003C424204180402024244383F
:102FF0000000000000040C14242444447E04041E39
:1030000000000000007E4040405864020242443804
:1030100000000000001C2440405864424242241832
:1030200000000000007E444408081010101010102A
:1030300000000000003C4242422418244242423C2C
:1030400000000000001824424242261A02022438DE
:103050000000000000000000181800000000181810
:103060000000000000000000001000000000001040
:103070001020000000020408102040201008040264
:103080000000000000000000FE000000FE00000044
:103090000000000000402010080402040810204036
:1030A00000000000003C42426202040808001818B8
:1030B000000000000038445AAAAAAAAAB442443820
:1030C00000000000001010182828243C444242E769
:1030D0000000000000F8444444784442424244F86E
:1030E00000000000003E42428080808080424438E0
:1030F0000000000000F8444242424242424244F88A
:103100000000000000FC424848784848404242FC29
:103110000000000000FC424848784848404040E039
:1031200000000000003C44448080808E8444443889
:103130000000000000E7424242427E42424242E733
:1031400000000000007C1010101010101010107CF7
:1031500000000000003E08080808080808080808E1
:1031600088F0000000EE444850705048484444EE57
:103170000000000000E0404040404040404042FE2F
:103180000000000000EE6C6C6C6C5454545454D627
:103190000000000000C7626252524A4A4A4646E2B4
:1031A0000000000000384482828282828282443899
:1031B0000000000000FC424242427C40404040E0AF
:1031C000000000000038448282828282B2CA4C38F9
:1031D0000600000000FC4242427C4848444442E36E
:1031E00000000000003E4242402018040242427C9F
:1031F0000000000000FE9210101010101010103887
:103200000000000000E74242424242424242423C49
:103210000000000000E7424244242428281810102F
:103220000000000000D692929292AAAA6C444444F4
:103230000000000000E7422424181818242442E764
:103240000000000000EE4444282810101010103830
:1032500000000000007E840408081020204242FC88
:103260000000001E10101010101010101010101080
:103270001E00000040402020101010080804040424
:103280000202007808080808080808080808080862
:103290007800001C22000000000000000000000078
:1032A000000000000000000000000000000000001E
:1032B00000FF00606020C00000000000000000006F
:1032C0000000000000000000003C421E2242423F7D
:1032D0000000000000C04040405864424242645830
:1032E0000000000000000000001C22404040221CA2
:1032F0000000000000060202021E22424242261B7B
:103300000000000000000000003C427E4040423CC3
:1033100000000000000F1110107E10101010107C23
:103320000000000000000000003E444438403C42E1
:10333000423C000000C04040405C6242424242E7E2
:103340000000000000303000007010101010107CE1
:1033500000000000000C0C00001C04040404040421
:103360004478000000C04040404E4850684844EE59
:103370000000000000701010101010101010107CD1
:10338000000000000000000000FE4949494949EDE5
:10339000000000000000000000DC6242424242E700
:1033A0000000000000000000003C42424242423C5B
:1033B000000000000000000000D86442424244784F
:1033C00040E0000000000000001E22424242221E97
:1033D000020700000000000000EE3220202020F84C
:1033E0000000000000000000003E42403C02427C21
:1033F0000000000000000010107C10101010100CD5
:10340000000000000000000000C642424242463B6D
:10341000000000000000000000E7422424281010F3
:10342000000000000000000000D79292AAAA4444C5
:103430000000000000000000006E24181818247618
:10344000000000000000000000E7422424281810BB
:1034500010E0000000000000007E44081010227EF2
:103460000000000304040404040804040404040425
:1034700003000808080808080808080808080808D9
:103480000808006010101010100810101010101014
:103490006000304C4300000000000000000000000D
:1034A000000000000010101838383C3C7C7E7EFF85
:1034B0000000000000FF7E7E7C3C3C383818101075
:1034C00000000000E4340008000000206800000054
:1034D0006C0100084C35000868000020B04A00006C
:1034E000880100080000000000002C0134000800E2
:1034F00000000000000000000000000000000000CC
:1035000000000000000000000000000000000000BB
:103510000000000000A24A040000000000000000BB
:103520000102030406070809000000000102030469
:10353000010203040607080902040608000000004F
:0C3540000000000000000000000000007F
:0400000508000131BD
:00000001FF
